:020000040800F2
:1000000000280020CD150008751400087D14000894
:10001000851400088D1400089514000800000000E5
:100020000000000000000000000000009D14000817
:10003000A914000800000000B5140008C11400084D
:1000400015160008151600081516000815160008E4
:1000500015160008151600081516000815160008D4
:1000600015160008151600081516000815160008C4
:1000700015160008151600081516000815160008B4
:1000800015160008151600081516000815160008A4
:100090001516000815160008151600081516000894
:1000A0001516000815160008151600081516000884
:1000B000CD140008151600080000000015160008F1
:1000C00015160008000000000000000015160008CA
:1000D00000000000151600081516000800000000BA
:1000E0001516000815160008151600080000000077
:1000F0000000000000000000000000000000000000
:0C01000000000000000000005FF808F1A3
:10010C0010B5054C237833B9044B13B10448AFF345
:10011C0000800123237010BD480000200000000067
:10012C004C2C000808B5034B1BB103490348AFF333
:10013C00008008BD000000004C0000204C2C000882
:10014C0090B583B000AF0023FB715CE0FA79FB79CA
:10015C003149895C314AD154FA79FB793049895C4F
:10016C002D4AD154FB792F4A52F82320FB792E4982
:10017C0031F81330FC791946104601F033FD034673
:10018C001A46274B1A55FB79244AD25CFB79224933
:10019C00CB5C9A420DD1FB79204AD25CFB79204989
:1001AC00CB5C9A4205D1FA79FB791D49895C1F4ACF
:1001BC00D154FB791D4AD35C002B14D1FB791C4A1A
:1001CC0032F81330312B09D8FB79194A32F8132045
:1001DC00013291B2164A22F8131011E0FB79154A3C
:1001EC000021D1540CE0FB79114A002122F81310A4
:1001FC00FB79104A0121D154FB790F4A0021D154CB
:10020C00FB790133FB71FB79022B9FD900BF00BF37
:10021C000C37BD4690BD00BF080000200C0000202C
:10022C00040000201400002020000020000000200A
:10023C0068000020100000206400002080B485B00D
:10024C0000AF0346FB71FB79022B01D900231AE0A6
:10025C00FB790F4AD35C002B06D1FB790D4AD35C9A
:10026C00002B01D1012300E00023FB73FB79094A29
:10027C00D35C002B0CBF01230023DAB2FB791146AF
:10028C00034AD154FB7B18461437BD4680BC7047DB
:10029C00640000200000002080B483B000AF03464F
:1002AC00FB71FB79022B01D9FF2307E0FB79064A8E
:1002BC00D35C002B0CBF01230023DBB218460C3798
:1002CC00BD4680BC704700BF1000002080B586B0D2
:1002DC0000AF07F1080300221A605A609A60DA60D6
:1002EC00294B9B69284A43F004039361264B9B6975
:1002FC0003F004037B607B68234B9B69224A43F029
:10030C0008039361204B9B6903F008033B603B6837
:10031C00002240F2EE711D4801F07BFC00224FF6EA
:10032C00FF711B4801F075FC40F2EE73BB600123BA
:10033C00FB6000233B6102237B6107F10803194634
:10034C00124801F0D3FA49F21003BB600023FB60A2
:10035C0000233B6107F1080319460C4801F0C6FA6B
:10036C004FF6FF73BB600123FB6000233B6102234C
:10037C007B6107F108031946054801F0B7FA00BF85
:10038C001837BD4680BD00BF001002400008014078
:10039C00000C014080B483B000AF0346FB71FB79C5
:1003AC00074AD35C002B05D0FB79054A0021D154B8
:1003BC00012300E0002318460C37BD4680BC704773
:1003CC008000002080B500AFAC4B1B780A2B00F2EC
:1003DC00E98101A252F823F0110400084F0400082F
:1003EC005D050008F3050008C1060008A10400081B
:1003FC000D05000841050008BD040008F1040008C3
:10040C00550700089E4B0B221A709E4B03221A7044
:10041C009D4B0C221A709D4B0F221A709C4B032281
:10042C001A709C4B08221A709B4B00221A709B4B23
:10043C0000221A70914B01221A70994B00221A70EB
:10044C00C5E10020FFF7FAFE0346002B14D0002074
:10045C00FFF722FF0346002B0ED1884B02221A70A5
:10046C008F4B01221A708F4B00221A708E4B002278
:10047C001A708E4B00221A700120FFF7DFFE034624
:10048C00002B00F093817D4B05221A70844B0622C1
:10049C001A708BE10120FFF7D1FE0346002B00F010
:1004AC008781764B08221A707D4B0A221A707FE1E5
:1004BC000120FFF7C3FE0346002B05D06F4B012232
:1004CC001A70774B00221A700220FFF7B7FE034612
:1004DC00002B00F06F81694B09221A70704B0B22B4
:1004EC001A7067E10120FFF7A9FE0346002B00F00C
:1004FC006381624B01221A70694B00221A705BE116
:10050C000120FFF79BFE0346002B05D05B4B01221D
:10051C001A70634B00221A700220FFF78FFE0346FD
:10052C00002B00F04B81554B07221A705C4B0922B3
:10053C001A7043E10120FFF781FE0346002B00F007
:10054C003F814E4B01221A70554B00221A7037E135
:10055C000120FFF71FFF0346002B05D10120FFF7F9
:10056C006DFE0346002B0DD04E4B1B78622B09D829
:10057C004C4B1B780133DAB24A4B1A70494B1A7840
:10058C004B4B1A700220FFF705FF0346002B05D1D9
:10059C000220FFF753FE0346002B0DD0414B1B7876
:1005AC00002B09D03F4B1B78013BDAB23D4B1A7044
:1005BC003C4B1A783E4B1A700020FFF73FFE034667
:1005CC00002B05D02D4B03221A70354B02221A70CA
:1005DC000020FFF7DFFE0346002B00F0F380274BD3
:1005EC000A221A70EEE00120FFF7D4FE0346002B1E
:1005FC0005D10120FFF722FE0346002B0DD02A4B1C
:10060C001B78622B09D8284B1B780133DAB2264BA6
:10061C001A70254B1A78264B1A700220FFF7BAFE77
:10062C000346002B05D10220FFF708FE0346002BE2
:10063C000DD01D4B1B78002B09D01B4B1B78013B9D
:10064C00DAB2194B1A70184B1A78194B1A70002021
:10065C00FFF7F4FD0346002B05D0084B04221A705B
:10066C000F4B03221A700020FFF794FE0346002B59
:10067C0000F0AA80014B0A221A70A5E06E0000203F
:10068C007000002071000020720000207500002016
:10069C0076000020770000207400002079000020F4
:1006AC006F0000207A0000207B0000207C000020DE
:1006BC00730000200120FFF76DFE0346002B05D1CF
:1006CC000120FFF7BBFD0346002B0DD0414B1B78DF
:1006DC00622B09D83F4B1B780133DAB23D4B1A70B1
:1006EC003C4B1A783C4B1A700220FFF753FE034622
:1006FC00002B05D10220FFF7A1FD0346002B0DD0E6
:10070C00344B1B78002B09D0324B1B78013BDAB2EF
:10071C00304B1A702F4B1A782F4B1A700020FFF7A2
:10072C008DFD0346002B05D02C4B02221A702C4B4E
:10073C0001221A700020FFF72DFE0346002B45D036
:10074C00264B0A221A7041E0264B1B780233264AAC
:10075C00127893421FDA244B1A78244B1A70214BCF
:10076C001A78234B1A701B4B1A78224B1A70214B98
:10077C001A781F4B1B781344DAB21F4B1A701C4BA0
:10078C001A781E4B1A70194B1A78194B1B78D31AFE
:10079C00DAB21B4B1A70114B01221A70104B00224B
:1007AC001A7014E00D4B00221A7010E000BF0EE01E
:1007BC0000BF0CE000BF0AE000BF08E000BF06E08D
:1007CC0000BF04E000BF02E000BF00E000BF00BFBC
:1007DC0080BD00BF7C000020730000206E00002054
:1007EC006F0000207B0000207A00002070000020A9
:1007FC00710000207200002075000020760000209F
:10080C007700002080B500AF01224FF4E771054856
:10081C0001F0FFF900220421024801F0FAF900BFAF
:10082C0080BD00BF0008014080B500AF01224FF42D
:10083C00E771054801F0EDF900220221024801F0B0
:10084C00E8F900BF80BD00BF0008014080B500AFD3
:10085C0001224FF4E771054801F0DBF90022082171
:10086C00024801F0D6F900BF80BD00BF000801406E
:10087C0080B500AF01224FF4E771054801F0C9F9CA
:10088C0000224821024801F0C4F900BF80BD00BF1E
:10089C000008014080B500AF01224FF4E771054814
:1008AC0001F0B7F900224421024801F0B2F900BF6F
:1008BC0080BD00BF0008014080B500AF01224FF49D
:1008CC00E771054801F0A5F900224FF48171024847
:1008DC0001F09FF900BF80BD0008014080B500AF5A
:1008EC0001224FF4E771054801F093F900228221AF
:1008FC00024801F08EF900BF80BD00BF0008014026
:10090C0080B500AF00224FF4C071024801F081F9AC
:10091C0000BF80BD000C014080B500AF00224FF439
:10092C00C061024801F075F900BF80BD00080140AC
:10093C0080B500AFB54B1B78122B00F2D88101A209
:10094C0052F823F09D090008C9090008F1090008B4
:10095C001D0A00080F0B00086D0B00084F0A000859
:10096C00B90A0008810C0008A70C0008C30B00088A
:10097C00E90B0008450A00089D0B0008930A0008C3
:10098C00E90A0008470B00085D0C0008D70C0008AA
:10099C004FF4FA71022000F00BFD9D4B00221A70EF
:1009AC009C4B00221A7001224FF4A5719A4801F059
:1009BC0030F98421984801F044F9A8E1944B0122C4
:1009CC001A70944B00221A70944B1A78944B1A702C
:1009DC00FFF72AFF8D4B0C221A700D21022000F01C
:1009EC00E7FC94E18A4B01221A708A4B00221A70A0
:1009FC008C4B1A788A4B1A70FFF782FFFFF702FFB5
:100A0C00824B0C221A700D21022000F0D1FC7EE1E9
:100A1C007F4B01221A707F4B00221A70824B1A787E
:100A2C007F4B1A70FFF712FF784B0C221A700D21B6
:100A3C00022000F0BDFC6AE10D21022000F0B8FCA0
:100A4C0065E1FA21022000F0B3FC784B1B789B0087
:100A5C009AB2774B1A806E4B01221A706D4B0122A1
:100A6C001A70724B1A786E4B1A70724B1A78724B52
:100A7C001A70FFF745FFFFF74FFFFFF7F9FE634BC7
:100A8C000E221A7043E1FA21022000F091FC684B0F
:100A9C001B88013B9AB2664B1A80654B1B88002B56
:100AAC0040F02A81594B07221A7025E1FA210220C5
:100ABC0000F07EFC614B1B789B009AB25C4B1A8059
:100ACC005E4B1A78564B1A70FFF71AFFFFF724FF8C
:100ADC00FFF7E0FE4D4B0F221A7018E1FA210220AD
:100AEC0000F066FC524B1B88013B9AB2504B1A80AB
:100AFC004F4B1B88002B40F00181444B04221A7091
:100B0C00FCE0FA21022000F053FC4D4B1B789B00BB
:100B1C009AB2474B1A804B4B1A78414B1A70484B80
:100B2C001A78454B1A70FFF7EBFEFFF7F5FEFFF74F
:100B3C00C3FE364B10221A70E9E0FA21022000F0B5
:100B4C0037FC3B4B1B88013B9AB2394B1A80384B14
:100B5C001B88002B40F0D4802C4B05221A70CFE060
:100B6C00394B1A78344B1A70FA21022000F020FC11
:100B7C00354B1B789B009AB22D4B1A80FFF7C0FEA9
:100B8C00FFF7CAFEFFF7AAFE204B0D221A70BEE03B
:100B9C00FA21022000F00CFC254B1B88013B9AB279
:100BAC00234B1A80224B1B88002B40F0AB80174B39
:100BBC0006221A70A6E0164B00221A70154B002262
:100BCC001A70FFF755FE214B08221A700F4B0C229E
:100BDC001A700D21022000F0EBFB98E0FA210220A4
:100BEC0000F0E6FB124B0C221A80094B01221A7002
:100BFC00084B00221A700A4B03221A70FFF780FE72
:100C0C00FFF748FE014B11221A7080E06F000020A4
:100C1C007400002079000020000801407A000020B8
:100C2C00730000207B0000207C000020720000205C
:100C3C007E0000207500002078000020710000204C
:100C4C007700002070000020760000206E0000204D
:100C5C00FA21022000F0ACFB2E4B1B88013B9AB210
:100C6C002C4B1A802B4B1B88002B4DD12A4B082266
:100C7C001A7049E0294B00221A70294B00221A7075
:100C8C00FFF71AFE244B0C221A70264B06221A7000
:100C9C000D21022000F08CFB39E0FA21022000F03B
:100CAC0087FB1C4B0C221A801C4B00221A701C4B0D
:100CBC0001221A701C4B03221A70FFF72DFEFFF74E
:100CCC000DFE154B08221A7021E0FA21022000F0CB
:100CDC006FFB104B1B88013B9AB20E4B1A800D4BCD
:100CEC001B88002B12D10C4B0A221A700EE00D211E
:100CFC00022000F05DFB0AE000BF08E000BF06E048
:100D0C0000BF04E000BF02E000BF00E000BF00BF76
:100D1C0080BD00BF7E0000206F000020740000200A
:100D2C00790000206E0000207800002080B584B08F
:100D3C0000AFFFF7E5FD2D4B1B78002B51D02C4B52
:100D4C001B782C4AA2FB0323DB08DBB2FB81284B6C
:100D5C001B781A46FB8919464903C91A8900CB1A14
:100D6C005B009BB21344BB81234B1B78002B1BD025
:100D7C00BB89224A32F813307B817F23FB80FB88AE
:100D8C00002219461E4800F044FF7B8901221946B7
:100D9C001B4800F03EFF01228021194800F039FF6A
:100DAC00154B00221A701DE0FB89144A32F81330DF
:100DBC007B817F233B813B8900221946104800F040
:100DCC0028FF7B89012219460D4800F022FF0122E1
:100DDC004FF480710A4800F01CFF074B01221A7077
:100DEC0000E000BF1037BD4680BD00BF740000207E
:100DFC0073000020CDCCCCCC830000202800002038
:100E0C00000C014080B584B000AFFFF785FD334B7B
:100E1C001B78002B5ED0324B1B78324AA2FB03238B
:100E2C00DB08DBB2FB812E4B1B781A46FB8919467B
:100E3C004903C91A8900CB1A5B009BB21344BB81CE
:100E4C00294B1B78002B22D0BB89284A32F813304F
:100E5C007B817F23FB80FB885B02FB807B895B02B1
:100E6C007B81FB8800221946214800F0D2FE7B8949
:100E7C00012219461E4800F0CCFE01224FF40071ED
:100E8C001C4800F0C6FE184B00221A7023E0FB89A8
:100E9C00164A32F813307B817F233B813B895B02FE
:100EAC003B817B895B027B813B8900221946104880
:100EBC0000F0AFFE7B89012219460D4800F0A9FE17
:100ECC0001224FF480610B4800F0A3FE064B012277
:100EDC001A7000E000BF1037BD4680BD79000020BD
:100EEC0078000020CDCCCCCC840000202800002041
:100EFC00000C01400008014080B500AF00F086FBFB
:100F0C0000F0FEF8FFF7E2F900F0EAFA01224FF4E4
:100F1C00E771754800F07DFE744B00221A704FF497
:100F2C007A71002000F044FA0D21012000F040FA03
:100F3C008221022000F03CFAFA21032000F038FA5A
:100F4C00FA21042000F034FA0A21082000F030FACB
:100F5C000B21052000F02CFA0C21062000F028FAB9
:100F6C000D21072000F024FA614801F0B1FA00F0DD
:100F7C00A9F9002000F0CEF90346002B2CD04FF439
:100F8C007A71002000F014FA2021574800F059FE25
:100F9C00564B1B78052B03D0544B1B78092B09D1CE
:100FAC00544B1B78012B05D9524B1B78013BDAB201
:100FBC00504B1A704D4B1B78052B03D04B4B1B78A9
:100FCC00072B09D14C4B1B78012B05D94A4B1B78AD
:100FDC00013BDAB2484B1A70012000F09BF9034632
:100FEC00002B05D0FFF7EEF90D21012000F0E0F900
:100FFC00022000F08FF90346002B01D0FFF798FC7C
:10100C00032000F087F90346002B05D07B21032039
:10101C0000F0CEF9FFF78AFE042000F07BF90346BE
:10102C00002B05D07B21042000F0C2F9FFF7EAFE6B
:10103C00082000F06FF90346002B05D00A21082088
:10104C0000F0B6F9FFF77CF8052000F063F90346D1
:10105C00002B13D00020FFF71FF903461A46274B2D
:10106C001A70264B1B78002B04D0FA21052000F0B7
:10107C009FF903E00A21052000F09AF9062000F000
:10108C0049F90346002B13D00120FFF705F903465D
:10109C001A461A4B5A70194B5B78002B04D0FA2164
:1010AC00062000F085F903E00A21062000F080F903
:1010BC00072000F02FF90346002B3FF458AF022015
:1010CC00FFF7EAF803461A460C4B9A700B4B9B78C9
:1010DC00002B04D0FA21072000F06AF947E70A2117
:1010EC00072000F065F942E7000801406E0000207F
:1010FC0054010020730000207800002080000020A4
:10110C0080B590B000AF07F11803282200211846D3
:10111C0001F06AFD3B1D00221A605A609A60DA6089
:10112C001A610223BB610123BB621023FB62002303
:10113C007B6307F11803184600F09CFD0346002B57
:10114C0001D000F018F80F237B600023BB60002354
:10115C00FB6000233B6100237B613B1D0021184693
:10116C0001F00AF80346002B01D000F004F800BF90
:10117C004037BD4680BD80B400AF72B600BF00BF23
:10118C00FDE7000080B485B000AF3B4683E8030068
:10119C000023FB7309E0FB7B5A1CFA73274ADB0024
:1011AC0013445B687A68D31A7B60FA7B244B1B6808
:1011BC009A4207DA7A68FB7B2049DB000B445B68B8
:1011CC009A42E8DAFA7B1E4B1B689A420BDAFB7BDD
:1011DC001A4ADB00134459687A68FB7B8A1A174950
:1011EC00DB000B445A60164B1B68BB600FE0BB68FE
:1011FC005A1E1248BB681149DB000344D2000A4452
:10120C0092E8030083E80300BB68013BBB60FB7BF7
:10121C00BA689A42EBDCFB7B084ADB0013443A4683
:10122C0092E8030083E80300054B1B680133044A72
:10123C00136000BF1437BD4680BC70479C00002073
:10124C005001002080B487B000AF78601B4A07F1D2
:10125C000C0392E8030083E8030001237B610FE099
:10126C007B69013B154815497A69DB000344D200C0
:10127C000A4492E8030083E803007B6901337B6135
:10128C000F4B1B687A699A42EADB0C4B5A683B6934
:10129C0013440A4A53600A4B1B68013B084A13600B
:1012AC007B681A4607F10C0393E8030082E80300FD
:1012BC0078681C37BD4680BC704700BF9C0000207E
:1012CC005001002080B400AF084B1B68002B08DDD8
:1012DC00074B5B68002B04DC054B1B68054A01219E
:1012EC00D15400BFBD4680BC704700BF50010020E8
:1012FC009C0000208800002080B400AF044B5B6889
:10130C00013B034A536000BFBD4680BC704700BF21
:10131C009C00002080B483B000AF7860094A7B68E1
:10132C0013441B78012B06D1064A7B681344002218
:10133C001A70012300E0002318460C37BD4680BC10
:10134C00704700BF8800002080B584B000AF786083
:10135C00396007F108031846FFF774FF7B68BB6020
:10136C00FA683B681344FB6007F1080393E8030039
:10137C00FFF708FF00BF1037BD4680BD80B584B0B5
:10138C0000AF78603960094A7B68134401221A70F7
:10139C007B68BB603B68FB6007F1080393E80300C4
:1013AC00FFF7F0FE00BF1037BD4680BD3C010020AA
:1013BC0080B582B000AF78603960094A7B6813440D
:1013CC001B78002B04D139687868FFF7D7FF03E04E
:1013DC0039687868FFF7B8FF00BF0837BD4680BD95
:1013EC003C01002080B582B000AF78607B681B6840
:1013FC00B3F1804F01D1FFF77FFF00BF0837BD4627
:10140C0080BD000080B485B000AF154B9B69144AB9
:10141C0043F001039361124B9B6903F00103BB6022
:10142C00BB680F4BDB690E4A43F08053D3610C4B06
:10143C00DB6903F080537B607B680A4B5B68FB6065
:10144C00FB6823F0E063FB60FB6843F00073FB6018
:10145C00044AFB68536000BF1437BD4680BC70471C
:10146C00001002400000014080B400AF00BFFDE757
:10147C0080B400AF00BFFDE780B400AF00BFFDE754
:10148C0080B400AF00BFFDE780B400AF00BFFDE744
:10149C0080B400AF00BFBD4680BC704780B400AFC5
:1014AC0000BFBD4680BC704780B400AF00BFBD46D6
:1014BC0080BC704780B500AF00F0EEF800BF80BD77
:1014CC0080B500AF024801F04FF800BF80BD00BFEF
:1014DC005401002080B400AF00BFBD4680BC7047F3
:1014EC0080B586B000AF07F1080300221A605A607D
:1014FC009A60DA603B4600221A605A601D4B4FF02E
:10150C0080421A601B4B40F21F325A60194B00226A
:10151C009A60184B0922DA60164B00221A61154B9F
:10152C0000229A61134800F083FF0346002B01D080
:10153C00FFF721FE4FF48053BB6007F108031946F7
:10154C000C4801F001F90346002B01D0FFF713FE04
:10155C0000233B6000237B603B461946054801F0A5
:10156C00D9FA0346002B01D0FFF705FE00BF183750
:10157C00BD4680BD5401002080B584B000AF7860BA
:10158C007B681B68B3F1804F13D10C4BDB690B4AA2
:10159C0043F00103D361094BDB6903F00103FB60EA
:1015AC00FB68002200211C2000F069F91C2000F0CF
:1015BC0082F900BF1037BD4680BD00BF001002404D
:1015CC00FFF788FF0B480C490C4A002302E0D45863
:1015DC00C4500433C4188C42F9D3094A094C002373
:1015EC0001E013600432A242FBD301F005FBFFF7CC
:1015FC0083FC70470000002048000020902C00085D
:10160C0048000020A0010020FEE7000080B500AFDC
:10161C00084B1B68074A43F010031360032000F0CB
:10162C0023F90F2000F008F8FFF7ECFE0023184612
:10163C0080BD00BF0020024080B582B000AF786052
:10164C00124B1A68124B1B7819464FF47A73B3FB82
:10165C00F1F3B2FBF3F3184600F03BF90346002B11
:10166C0001D001230EE07B680F2B0AD80022796889
:10167C004FF0FF3000F003F9064A7B68136000233B
:10168C0000E0012318460837BD4680BD3C00002011
:10169C00440000204000002080B400AF054B1B78B4
:1016AC001A46054B1B681344034A136000BFBD4622
:1016BC0080BC7047440000209C01002080B400AF27
:1016CC00024B1B681846BD4680BC70479C0100202D
:1016DC0080B485B000AF78607B6803F00703FB60D3
:1016EC000C4BDB68BB60BA684FF6FF031340BB6062
:1016FC00FB681A02BB68134343F0BF6343F4003327
:10170C00BB60044ABB68D36000BF1437BD4680BCC5
:10171C00704700BF00ED00E080B400AF044BDB6805
:10172C001B0A03F007031846BD4680BC704700BF78
:10173C0000ED00E080B483B000AF0346FB7197F975
:10174C000730002B0BDBFB7903F01F02064997F9DE
:10175C0007305B09012000FA02F241F8232000BF98
:10176C000C37BD4680BC704700E100E080B483B00C
:10177C0000AF03463960FB7197F90730002B0ADB89
:10178C003B68DAB20C4997F907301201D2B20B441C
:10179C0083F800230AE03B68DAB20849FB7903F0CE
:1017AC000F03043B1201D2B20B441A7600BF0C3764
:1017BC00BD4680BC704700BF00E100E000ED00E0DA
:1017CC0080B489B000AFF860B9607A60FB6803F050
:1017DC000703FB61FB69C3F10703042B28BF042338
:1017EC00BB61FB690433062B02D9FB69033B00E0A8
:1017FC0000237B614FF0FF32BB6902FA03F3DA433B
:10180C00BB681A407B699A404FF0FF317B6901FA43
:10181C0003F3D9437B680B40134318462437BD466A
:10182C0080BC704780B582B000AF78607B68013BAC
:10183C00B3F1807F01D301230FE00A4A7B68013B9F
:10184C0053600F214FF0FF30FFF790FF054B002244
:10185C009A60044B07221A60002318460837BD46CD
:10186C0080BD00BF10E000E080B582B000AF7860B2
:10187C007868FFF72DFF00BF0837BD4680BD80B5E7
:10188C0086B000AF0346B9607A60FB7300237B61BE
:10189C00FFF742FF78617A68B9687869FFF790FFC3
:1018AC00024697F90F3011461846FFF75FFF00BF4D
:1018BC001837BD4680BD80B582B000AF0346FB71C2
:1018CC0097F907301846FFF735FF00BF0837BD46BC
:1018DC0080BD80B582B000AF78607868FFF7A2FF5A
:1018EC00034618460837BD4680BD000080B48BB057
:1018FC0000AF7860396000237B6200233B6261E1BA
:10190C0001227B6A02FA03F3FB613B681B68FA69EC
:10191C001340BB61BA69FB699A4240F050813B6845
:10192C005B68974A93425ED0954A934275D8954A24
:10193C00934258D0934A93426FD8934A934252D0D1
:10194C00914A934269D8914A93424CD08F4A934220
:10195C0063D88F4A934246D08D4A93425DD8122B5E
:10196C002AD8122B59D801A252F823F0F3190008E7
:10197C00CD190008DF190008211A0008271A0008E1
:10198C00271A0008271A0008271A0008271A000827
:10199C00271A0008271A0008271A0008271A000817
:1019AC00271A0008271A0008271A0008271A000807
:1019BC00D5190008E9190008764A934213D02CE097
:1019CC003B68DB683B6229E03B68DB6804333B62C5
:1019DC0024E03B68DB6808333B621FE03B68DB6854
:1019EC000C333B621AE03B689B68002B02D104234A
:1019FC003B6213E03B689B68012B05D108233B62DB
:101A0C007B68FA691A6109E008233B627B68FA6912
:101A1C005A6103E000233B6200E000BFBB69FF2B6F
:101A2C0001D87B6801E07B6804337B61BB69FF2BC9
:101A3C0002D87B6A9B0002E07B6A083B9B003B61FF
:101A4C007B691A680F213B6901FA03F3DB431A40E7
:101A5C00396A3B6901FA03F31A437B691A603B68E4
:101A6C005B6803F08053002B00F0A9804A4B9B6904
:101A7C00494A43F001039361474B9B6903F001030F
:101A8C00BB60BB68454A7B6A9B08023352F8233023
:101A9C00FB607B6A03F003039B000F2202FA03F343
:101AAC00DB43FA681340FB607B683D4A93420DD0E0
:101ABC007B683C4A934207D07B683B4A934201D1F6
:101ACC00022304E0032302E0012300E000237A6AEE
:101ADC0002F0030292009340FA681343FB602F4913
:101AEC007B6A9B080233FA6841F823203B685B68E9
:101AFC0003F48013002B06D02C4B9A682B49BB693E
:101B0C0013438B6006E0294B9A68BB69DB4327497A
:101B1C0013408B603B685B6803F40013002B06D00A
:101B2C00224BDA682149BB691343CB6006E01F4B9B
:101B3C00DA68BB69DB431D491340CB603B685B68CB
:101B4C0003F40033002B06D0184B5A681749BB69B5
:101B5C0013434B6006E0154B5A68BB69DB431349D2
:101B6C0013404B603B685B6803F48033002B1FD041
:101B7C000E4B1A680D49BB6913430B601FE000BF85
:101B8C000000321000003110000022100000211063
:101B9C000000121000001110001002400000014063
:101BAC0000080140000C01400010014000040140FD
:101BBC000B4B1A68BB69DB43094913400B607B6A0A
:101BCC0001337B623B681A687B6A22FA03F3002BB1
:101BDC007FF496AE00BF00BF2C37BD4680BC70476B
:101BEC000004014080B485B000AF78600B467B8068
:101BFC007B689A687B881340002B02D00123FB730F
:101C0C0001E00023FB73FB7B18461437BD4680BCF8
:101C1C00704780B483B000AF78600B467B8013466E
:101C2C007B707B78002B03D07A887B681A6103E089
:101C3C007B881A047B681A6100BF0C37BD4680BCD8
:101C4C00704780B485B000AF78600B467B807B68B2
:101C5C00DB68FB607A88FB6813401A04FB68D94385
:101C6C007B880B401A437B681A6100BF1437BD4652
:101C7C0080BC704780B586B000AF78607B68002B65
:101C8C0001D1012372E27B681B6803F00103002B76
:101C9C0000F08780924B5B6803F00C03042B0CD094
:101CAC008F4B5B6803F00C03082B12D18C4B5B68D9
:101CBC0003F48033B3F5803F0BD1894B1B6803F4DD
:101CCC000033002B6CD07B685B68002B68D1012340
:101CDC004CE27B685B68B3F5803F06D1804B1B6898
:101CEC007F4A43F4803313602EE07B685B68002BE3
:101CFC000CD17B4B1B687A4A23F480331360784BEE
:101D0C001B68774A23F4802313601DE07B685B68B3
:101D1C00B3F5A02F0CD1724B1B68714A43F480238E
:101D2C0013606F4B1B686E4A43F4803313600BE0F7
:101D3C006B4B1B686A4A23F480331360684B1B6837
:101D4C00674A23F4802313607B685B68002B13D0F5
:101D5C00FFF7B4FC386108E0FFF7B0FC02463B69C2
:101D6C00D31A642B01D9032300E25D4B1B6803F4E7
:101D7C000033002BF0D014E0FFF7A0FC386108E032
:101D8C00FFF79CFC02463B69D31A642B01D9032351
:101D9C00ECE1534B1B6803F40033002BF0D100E053
:101DAC0000BF7B681B6803F00203002B63D04C4B15
:101DBC005B6803F00C03002B0BD0494B5B6803F002
:101DCC000C03082B1CD1464B5B6803F48033002BAF
:101DDC0016D1434B1B6803F00203002B05D07B6824
:101DEC001B69012B01D00123C0E13D4B1B6823F083
:101DFC00F8027B685B69DB00394913430B603AE0FE
:101E0C007B681B69002B20D0364B01221A60FFF730
:101E1C0055FC386108E0FFF751FC02463B69D31AC8
:101E2C00022B01D90323A1E12D4B1B6803F0020304
:101E3C00002BF0D02A4B1B6823F0F8027B685B69FF
:101E4C00DB00274913430B6015E0264B00221A6078
:101E5C00FFF734FC386108E0FFF730FC02463B69C1
:101E6C00D31A022B01D9032380E11D4B1B6803F00D
:101E7C000203002BF0D17B681B6803F00803002BD6
:101E8C003AD07B689B69002B19D0174B01221A6042
:101E9C00FFF714FC386108E0FFF710FC02463B69C1
:101EAC00D31A022B01D9032360E10D4B5B6A03F0BB
:101EBC000203002BF0D0012000F09CFA1CE00A4B2E
:101ECC0000221A60FFF7FAFB38610FE0FFF7F6FB10
:101EDC0002463B69D31A022B08D9032346E100BF03
:101EEC00001002400000424280044242924B5B6A66
:101EFC0003F00203002BE9D17B681B6803F0040399
:101F0C00002B00F0A6800023FB758B4BDB6903F0E4
:101F1C008053002B0DD1884BDB69874A43F08053EB
:101F2C00D361854BDB6903F08053BB60BB68012335
:101F3C00FB75824B1B6803F48073002B18D17F4B0D
:101F4C001B687E4A43F480731360FFF7B7FB38615C
:101F5C0008E0FFF7B3FB02463B69D31A642B01D9A7
:101F6C00032303E1754B1B6803F48073002BF0D043
:101F7C007B68DB68012B06D16F4B1B6A6E4A43F002
:101F8C00010313622DE07B68DB68002B0CD16A4BDC
:101F9C001B6A694A23F001031362674B1B6A664A8A
:101FAC0023F0040313621CE07B68DB68052B0CD167
:101FBC00614B1B6A604A43F0040313625E4B1B6A5D
:101FCC005D4A43F0010313620BE05B4B1B6A5A4AF8
:101FDC0023F001031362584B1B6A574A23F0040386
:101FEC0013627B68DB68002B15D0FFF767FB386149
:101FFC000AE0FFF763FB02463B69D31A41F28832D1
:10200C00934201D90323B1E04B4B1B6A03F002034B
:10201C00002BEED014E0FFF751FB38610AE0FFF71C
:10202C004DFB02463B69D31A41F28832934201D9E7
:10203C0003239BE0404B1B6A03F00203002BEED101
:10204C00FB7D012B05D13C4BDB693B4A23F08053D4
:10205C00D3617B68DB69002B00F08780364B5B68B3
:10206C0003F00C03082B61D07B68DB69022B46D193
:10207C00334B00221A60FFF721FB386108E0FFF7B1
:10208C001DFB02463B69D31A022B01D903236DE0D9
:10209C00294B1B6803F00073002BF0D17B681B6A83
:1020AC00B3F5803F08D1244B5B6823F400327B6886
:1020BC009B68214913434B601F4B5B6823F47412DC
:1020CC007B68196A7B685B6A0B431B4913434B6043
:1020DC001B4B01221A60FFF7F1FA386108E0FFF799
:1020EC00EDFA02463B69D31A022B01D903233DE0DA
:1020FC00114B1B6803F00073002BF0D035E0104B34
:10210C0000221A60FFF7DAFA386108E0FFF7D6FA16
:10211C0002463B69D31A022B01D9032326E0064B56
:10212C001B6803F00073002BF0D11EE07B68DB69A9
:10213C00012B07D1012319E0001002400070004070
:10214C00600042420B4B5B68FB60FB6803F480321F
:10215C007B681B6A9A4206D1FB6803F470127B6899
:10216C005B6A9A4201D0012300E00023184618371D
:10217C00BD4680BD0010024080B584B000AF7860D1
:10218C0039607B68002B01D10123D0E06A4B1B68BE
:10219C0003F007033A689A4210D9674B1B6823F087
:1021AC00070265493B6813430B60634B1B6803F0E4
:1021BC0007033A689A4201D00123B8E07B681B6898
:1021CC0003F00203002B20D07B681B6803F0040390
:1021DC00002B05D0594B5B68584A43F4E0635360BD
:1021EC007B681B6803F00803002B05D0534B5B681E
:1021FC00524A43F460535360504B5B6823F0F00237
:10220C007B689B684D4913434B607B681B6803F0EC
:10221C000103002B40D07B685B68012B07D1474B37
:10222C001B6803F40033002B15D101237FE07B687E
:10223C005B68022B07D1414B1B6803F00073002B2A
:10224C0009D1012373E03D4B1B6803F00203002B03
:10225C0001D101236BE0394B5B6823F003027B68EF
:10226C005B68364913434B60FFF728FAF8600AE0C5
:10227C00FFF724FA0246FB68D31A41F288329342E4
:10228C0001D9032353E02D4B5B6803F00C027B68F0
:10229C005B689B009A42EBD1274B1B6803F007034A
:1022AC003A689A4210D2244B1B6823F00702224949
:1022BC003B6813430B60204B1B6803F007033A6821
:1022CC009A4201D0012332E07B681B6803F00403BF
:1022DC00002B08D0194B5B6823F4E0627B68DB6849
:1022EC00164913434B607B681B6803F00803002BF3
:1022FC0009D0124B5B6823F460527B681B69DB00CE
:10230C000E4913434B6000F021F802460B4B5B68FF
:10231C001B0903F00F030A49CB5C22FA03F3094AA9
:10232C001360094B1B681846FFF786F90023184603
:10233C001037BD4680BD00BF002002400010024097
:10234C00642C00083C0000204000002080B487B0C2
:10235C0000AF0023FB600023BB6000237B610023E4
:10236C007B6000233B611E4B5B68FB60FB6803F0EA
:10237C000C03042B02D0082B03D027E0194B3B6134
:10238C0027E0FB689B0C03F00F03174AD35C7B60C0
:10239C00FB6803F48033002B10D0114B5B685B0C93
:1023AC0003F00103114AD35CBB607B680D4A03FB4D
:1023BC0002F2BB68B2FBF3F37B6104E07B680C4A6E
:1023CC0002FB03F37B617B693B6102E0054B3B61E4
:1023DC0000BF3B6918461C37BD4680BC704700BF28
:1023EC000010024000127A00742C0008842C0008A3
:1023FC0000093D0080B485B000AF78600A4B1B68C3
:10240C000A4AA2FB03235B0A7A6802FB03F3FB6014
:10241C0000BFFB685A1EFA60002BF9D100BF00BF49
:10242C001437BD4680BC70473C000020D34D621071
:10243C0080B582B000AF78607B68002B01D101239E
:10244C0041E07B6893F83D30DBB2002B06D17B6812
:10245C00002283F83C207868FFF78EF87B68022214
:10246C0083F83D207B681A687B6804331946104654
:10247C0000F056FA7B68012283F846207B68012223
:10248C0083F83E207B68012283F83F207B68012281
:10249C0083F840207B68012283F841207B6801226D
:1024AC0083F842207B68012283F843207B68012259
:1024BC0083F844207B68012283F845207B68012245
:1024CC0083F83D20002318460837BD4680BD000028
:1024DC0080B485B000AF78607B6893F83D30DBB298
:1024EC00012B01D0012335E07B68022283F83D20CB
:1024FC007B681B68DA687B681B6842F00102DA6053
:10250C007B681B68164A934209D07B681B68B3F141
:10251C00804F04D07B681B68124A934211D17B68B0
:10252C001B689B6803F00703FB60FB68062B10D04D
:10253C007B681B681A687B681B6842F001021A6092
:10254C0007E07B681B681A687B681B6842F0010215
:10255C001A60002318461437BD4680BC704700BF74
:10256C00002C01400004004080B584B000AF7860BE
:10257C007B681B68DB68FB607B681B681B69BB6046
:10258C00BB6803F00203002B20D0FB6803F00203AE
:10259C00002B1BD07B681B686FF002021A617B68F2
:1025AC0001221A777B681B689B6903F00303002BDD
:1025BC0003D0786800F098F905E0786800F08BF9A2
:1025CC00786800F09AF97B6800221A77BB6803F0F0
:1025DC000403002B20D0FB6803F00403002B1BD05A
:1025EC007B681B686FF004021A617B6802221A7701
:1025FC007B681B689B6903F44073002B03D07868DD
:10260C0000F072F905E0786800F065F9786800F080
:10261C0074F97B6800221A77BB6803F00803002B5F
:10262C0020D0FB6803F00803002B1BD07B681B68D1
:10263C006FF008021A617B6804221A777B681B68AA
:10264C00DB6903F00303002B03D0786800F04CF92E
:10265C0005E0786800F03FF9786800F04EF97B6887
:10266C0000221A77BB6803F01003002B20D0FB6804
:10267C0003F01003002B1BD07B681B686FF010025B
:10268C001A617B6808221A777B681B68DB6903F484
:10269C004073002B03D0786800F026F905E07868C9
:1026AC0000F019F9786800F028F97B6800221A7795
:1026BC00BB6803F00103002B0CD0FB6803F0010393
:1026CC00002B07D07B681B686FF001021A617868D9
:1026DC00FEF788FEBB6803F08003002B0CD0FB6870
:1026EC0003F08003002B07D07B681B686FF080021F
:1026FC001A61786800F06FFABB6803F04003002B96
:10270C000CD0FB6803F04003002B07D07B681B68E0
:10271C006FF040021A61786800F0F8F8BB6803F0BB
:10272C002003002B0CD0FB6803F02003002B07D0F8
:10273C007B681B686FF020021A61786800F042FA1F
:10274C0000BF1037BD4680BD80B584B000AF786047
:10275C0039600023FB737B6893F83C30012B01D16B
:10276C000223B4E07B68012283F83C207B680222C0
:10277C0083F83D207B681B689B68BB60BB6823F0BB
:10278C007703BB60BB6823F47F43BB607B681B682B
:10279C00BA689A603B681B68B3F5005F3ED0B3F52E
:1027AC00005F00F28780B3F5805F00F08680B3F5A0
:1027BC00805F7FD8702B1AD0702B7BD8602B50D0B9
:1027CC00602B77D8502B3CD0502B73D8402B58D043
:1027DC00402B6FD8302B64D0302B6BD8202B60D093
:1027EC00202B67D8002B5CD0102B5AD062E07B6872
:1027FC0018683B6899683B685A683B68DB6800F06E
:10280C006AF97B681B689B68BB60BB6843F0770305
:10281C00BB607B681B68BA689A604FE07B6818687D
:10282C003B6899683B685A683B68DB6800F053F971
:10283C007B681B689A687B681B6842F480429A60CC
:10284C003CE07B6818683B6859683B68DB681A4653
:10285C0000F0CAF87B681B685021184600F021F97B
:10286C002CE07B6818683B6859683B68DB681A4643
:10287C0000F0E8F87B681B686021184600F011F93D
:10288C001CE07B6818683B6859683B68DB681A4633
:10289C0000F0AAF87B681B684021184600F001F98B
:1028AC000CE07B681A683B681B681946104600F000
:1028BC00F8F803E00123FB7300E000BF7B68012202
:1028CC0083F83D207B68002283F83C20FB7B184674
:1028DC001037BD4680BD80B483B000AF786000BFB8
:1028EC000C37BD4680BC704780B483B000AF7860B5
:1028FC0000BF0C37BD4680BC704780B483B000AFBE
:10290C00786000BF0C37BD4680BC704780B483B084
:10291C0000AF786000BF0C37BD4680BC704700002C
:10292C0080B485B000AF786039607B681B68FB6051
:10293C007B682B4A934207D07B68B3F1804F03D05E
:10294C007B68284A934208D1FB6823F07003FB6034
:10295C003B685B68FA681343FB607B68204A9342D0
:10296C0007D07B68B3F1804F03D07B681D4A93423C
:10297C0008D1FB6823F44073FB603B68DB68FA68A2
:10298C001343FB60FB6823F080023B685B691343D5
:10299C00FB607B68FA681A603B689A687B68DA624D
:1029AC003B681A687B689A627B680D4A934203D134
:1029BC003B681A697B681A637B6801225A617B68E1
:1029CC001B6903F00103002B05D07B681B6923F006
:1029DC0001027B681A6100BF1437BD4680BC70478A
:1029EC00002C01400004004080B487B000AFF860B8
:1029FC00B9607A60FB681B6A7B61FB681B6A23F019
:102A0C000102FB681A62FB689B693B613B6923F01E
:102A1C00F0033B617B681B013A6913433B617B69A3
:102A2C0023F00A037B617A69BB6813437B61FB6803
:102A3C003A699A61FB687A691A6200BF1C37BD4615
:102A4C0080BC704780B487B000AFF860B9607A6022
:102A5C00FB681B6A7B61FB681B6A23F01002FB6836
:102A6C001A62FB689B693B613B6923F470433B61D1
:102A7C007B681B033A6913433B617B6923F0A0031A
:102A8C007B61BB681B017A6913437B61FB683A6904
:102A9C009A61FB687A691A6200BF1C37BD4680BC1C
:102AAC00704780B485B000AF786039607B689B68F4
:102ABC00FB60FB6823F07003FB603A68FB68134310
:102ACC0043F00703FB607B68FA689A6000BF143719
:102ADC00BD4680BC704780B487B000AFF860B96069
:102AEC007A603B60FB689B687B617B6923F47F4366
:102AFC007B613B681A027B681A43BB6813437A6993
:102B0C0013437B61FB687A699A6000BF1C37BD4632
:102B1C0080BC704780B485B000AF786039607B684A
:102B2C0093F83C30012B01D1022341E07B68012258
:102B3C0083F83C207B68022283F83D207B681B686D
:102B4C005B68FB607B681B689B68BB60FB6823F061
:102B5C007003FB603B681B68FA681343FB607B687F
:102B6C001B68FA685A607B681B68144A934209D048
:102B7C007B681B68B3F1804F04D07B681B68104ADC
:102B8C0093420CD1BB6823F08003BB603B685B684D
:102B9C00BA681343BB607B681B68BA689A607B6831
:102BAC00012283F83D207B68002283F83C2000231F
:102BBC0018461437BD4680BC704700BF002C01403E
:102BCC000004004080B483B000AF786000BF0C37C5
:102BDC00BD4680BC704780B483B000AF786000BF46
:102BEC000C37BD4680BC704703460244934200D16B
:102BFC00704703F8011BF9E770B500260C4D0D4C1E
:102C0C00641BA410A64209D100F01AF800260A4D44
:102C1C000A4C641BA410A64205D170BD55F8043BA8
:102C2C0098470136EEE755F8043B98470136F2E732
:102C3C00882C0008882C0008882C00088C2C000894
:102C4C00F8B500BFF8BC08BC9E467047F8B500BF8D
:082C5C00F8BC08BC9E4670475D
:102C64000000000000000000010203040607080938
:102C740002030405060708090A0B0C0D0E0F1010B9
:042C84000102000049
:042C8800310100080E
:042C8C000D0100082E
:102C90000100000001000000010000000100000030
:102CA0000100000000080140000801400008014048
:102CB0001000001000800000400079002400300067
:102CC00019001200020078000000100000127A00C3
:082CD0001000000001000000EB
:04000005080015CD0D
:00000001FF
