:020000040800F2
:1000000000280020B51800085D17000865170008D3
:100010006D170008751700087D1700080000000024
:10002000000000000000000000000000851700082C
:1000300091170008000000009D170008A91700088C
:10004000FD180008FD180008FD180008FD1800083C
:10005000FD180008FD180008FD180008FD1800082C
:10006000FD180008FD180008FD180008FD1800081C
:10007000FD180008FD180008FD180008FD1800080C
:10008000FD180008FD180008FD180008FD180008FC
:10009000FD180008FD180008FD180008FD180008EC
:1000A000FD180008FD180008FD180008FD180008DC
:1000B000B5170008FD18000800000000FD18000832
:1000C000FD1800080000000000000000FD180008F6
:1000D00000000000FD180008FD18000800000000E6
:1000E000FD180008FD180008FD18000800000000B9
:1000F0000000000000000000000000000000000000
:0C01000000000000000000005FF808F1A3
:10010C0010B5054C237833B9044B13B10448AFF345
:10011C0000800123237010BD4C0000200000000063
:10012C00342F000808B5034B1BB103490348AFF348
:10013C00008008BD0000000050000020342F000893
:10014C0080B483B000AF1E4B00221A701D4B0122ED
:10015C001A600023FB7129E0FA791B4913469B00B6
:10016C0013449B000B4400221A60FA79164913467B
:10017C009B0013449B000B44043300221A60FA7951
:10018C00114913469B0013449B000B440833002277
:10019C001A60FA790C4913469B0013449B000B44DC
:1001AC000C3300221A70FB790133FB71FB79272B7E
:1001BC00D2D900BF00BF0C37BD4680BC704700BF12
:1001CC0068000020000000200C01002080B400AF6B
:1001DC00064B1B78002B05D0054B5B68013B044A92
:1001EC00536000E000BFBD4680BC70476800002033
:1001FC000C010020B0B48BB000AFF860B9607A602D
:10020C005D4B1B78272B01D90323B0E0FB68002B37
:10021C0001D10123ABE0FB683B61BB687B617B6870
:10022C00BB61564B1B683B6200233B77002387F86E
:10023C00273011E0796997F82720514813469B0025
:10024C0013449B00034404331B68CB1A7B6197F85F
:10025C002730013387F82730474B1B7897F8272036
:10026C009A4226D2796997F82720454813469B0075
:10027C0013449B00034404331B689942DADC79690C
:10028C0097F827203E4813469B0013449B000344D9
:10029C0004331B6899420CD1B96997F82720384868
:1002AC0013469B0013449B00034408331B6899427C
:1002BC00C0DD314B1B7897F827209A423CD297F837
:1002CC0027202F4913469B0013449B000B440433F7
:1002DC0019687B6997F82720C91A294813469B008F
:1002EC0013449B00034404331960234B1B7887F899
:1002FC0026301BE097F826305A1E97F82610204817
:10030C000B469B000B449B0018441D4913469B0055
:10031C0013449B000B4404461D460FCD0FC42B68A1
:10032C00236097F82630013B87F8263097F8262073
:10033C0097F827309A42DDD897F8272010491346B2
:10034C009B0013449B000B441D4607F110040FCC7B
:10035C000FC523682B60084B1B780133DAB2064BB0
:10036C001A70064B1B680133044A136000231846AD
:10037C002C37BD46B0BC7047680000200000002040
:10038C000C010020B0B485B000AF78600023FB7383
:10039C0002E0FB7B0133FB734F4B1B78FA7B9A42D9
:1003AC000BD2FA7B4D4913469B0013449B000B4424
:1003BC0010331A687B689A42EBD1474B1B78FA7B57
:1003CC009A4201D3012382E0434B1B78013BDAB202
:1003DC00414B1A70404B1B78FA7B9A4236D2FB7B0E
:1003EC005A1C3E4913469B0013449B000B44043398
:1003FC001968FA7B394813469B0013449B0003444D
:10040C0004331B68FA7B01321944344813469B00B1
:10041C0013449B0003440433196017E0FB7B5A1C04
:10042C00F97B2E480B469B000B449B0018442B4930
:10043C0013469B0013449B000B4404461D460FCDF2
:10044C000FC42B682360FB7B0133FB73224B1B789F
:10045C00FA7B9A42E2D3204B1B7819461F4A0B4673
:10046C009B000B449B00134400221A601A4B1B7810
:10047C0019461A4A0B469B000B449B001344043349
:10048C0000221A60144B1B781946144A0B469B0029
:10049C000B449B001344083300221A600E4B1B784C
:1004AC0019460E4A0B469B000B449B0013440C331D
:1004BC0000221A70084B1B781946084A0B469B0001
:1004CC000B449B001344103300221A60002318467F
:1004DC001437BD46B0BC7047680000200C010020EA
:1004EC00B0B588B000AF664B1B78002B00F0C48011
:1004FC000023FB61634B5B68002B00F3A780614B0F
:10050C003C461D460FCD0FC42B6823605D4B9A698A
:10051C007B6813445B4A93613B7B0133DBB23B73D7
:10052C00BB68002B00F08580BA687B6813447B6045
:10053C000123FB7623E07968FA7E524813469B0030
:10054C0013449B00034404331B68CB1A7B60FA7E74
:10055C00FB7E591E4B480B469B000B449B001844DA
:10056C00484913469B0013449B000B4404461D460C
:10057C000FCD0FC42B682360FB7E0133FB76404B01
:10058C001B78FA7E9A4223D27968FA7E3D4813464C
:10059C009B0013449B00034404331B689942CADC40
:1005AC007968FA7E374813469B0013449B0003443A
:1005BC0004331B6899420BD1B968FA7E3148134653
:1005CC009B0013449B00034408331B689942B2DD23
:1005DC00FB7E5A1E2B4913469B0013449B000B4475
:1005EC001D463C460FCC0FC523682B60244B1B7853
:1005FC00FA7E9A4222D2FA7E224913469B00134479
:10060C009B000B4404331968FB7E5A1E1D4813468D
:10061C009B0013449B00034404331B68FA7EC91AE5
:10062C00184813469B0013449B0003440433196081
:10063C0004E0144B1B691846FFF7A4FE3A681249F4
:10064C00FB6941F82320FB690133FB6100237B61CB
:10065C000DE00D4A7B6952F82330002B04D00A4A76
:10066C007B6952F8233098477B6901337B617A6947
:10067C00FB699A42EDDB00E000BF2037BD46B0BD00
:10068C00680000200C0100206C00002080B582B0B6
:10069C0000AF78607B681B68B3F1804F01D1FFF726
:1006AC0095FD00BF0837BD4680BD000090B583B0F6
:1006BC0000AF0023FB715CE0FA79FB793149895C6E
:1006CC00314AD154FA79FB793049895C2D4AD1549D
:1006DC00FB792F4A52F82320FB792E4931F813303D
:1006EC00FC791946104601F0F1FB03461A46274BDC
:1006FC001A55FB79244AD25CFB792249CB5C9A428D
:10070C000DD1FB79204AD25CFB792049CB5C9A4213
:10071C0005D1FA79FB791D49895C1F4AD154FB79C3
:10072C001D4AD35C002B14D1FB791C4A32F81330D0
:10073C00312B09D8FB79194A32F81320013291B2C6
:10074C00164A22F8131011E0FB79154A0021D154F6
:10075C000CE0FB79114A002122F81310FB79104AA6
:10076C000121D154FB790F4A0021D154FB7901337B
:10077C00FB71FB79022B9FD900BF00BF0C37BD4624
:10078C0090BD00BF0C0000201000002008000020CD
:10079C001800002024000020040000203004002059
:1007AC00140000202C04002080B485B000AF034658
:1007BC00FB71FB79022B01D900231AE0FB790F4A5C
:1007CC00D35C002B06D1FB790D4AD35C002B01D1F5
:1007DC00012300E00023FB73FB79094AD35C002B57
:1007EC000CBF01230023DAB2FB791146034AD15422
:1007FC00FB7B18461437BD4680BC70472C04002088
:10080C000400002080B483B000AF0346FB71FB7979
:10081C00022B01D9FF2307E0FB79064AD35C002B9E
:10082C000CBF01230023DBB218460C37BD4680BC3D
:10083C00704700BF1400002080B586B000AF07F1F0
:10084C00080300221A605A609A60DA60294B9B698F
:10085C00284A43F004039361264B9B6903F004037D
:10086C007B607B68234B9B69224A43F008039361AE
:10087C00204B9B6903F008033B603B68002240F26D
:10088C00EE711D4801F039FB00224FF6FF711B4839
:10089C0001F033FB40F2EE73BB600123FB600023DD
:1008AC003B6102237B6107F108031946124801F0F2
:1008BC0091F949F21003BB600023FB6000233B61FC
:1008CC0007F1080319460C4801F084F94FF6FF7341
:1008DC00BB600123FB6000233B6102237B6107F1BA
:1008EC0008031946054801F075F900BF1837BD46D5
:1008FC0080BD00BF0010024000080140000C014008
:10090C0080B483B000AF0346FB71FB79074AD35C1C
:10091C00002B05D0FB79054A0021D154012300E0BE
:10092C00002318460C37BD4680BC70474C04002091
:10093C0080B500AFAC4B1B780A2B00F2F18101A201
:10094C0052F823F07D090008BB090008C90A000809
:10095C005F0B00082D0C00080D0A0008790A00082E
:10096C00AD0A0008290A00085D0A0008C10C00083D
:10097C009E4B0B221A709E4B03221A709D4B0C221D
:10098C001A709D4B0F221A709C4B03221A709C4BB1
:10099C0008221A709B4B00221A709B4B00221A7073
:1009AC00914B01221A70994B00221A70CDE1002054
:1009BC00FFF7FAFE0346002B14D00020FFF722FFAE
:1009CC000346002B0ED1884B02221A708F4B01224A
:1009DC001A708F4B00221A708E4B00221A708E4B9D
:1009EC0000221A700120FFF7DFFE0346002B00F0F7
:1009FC009B817D4B05221A70844B06221A7093E161
:100A0C000120FFF7D1FE0346002B00F08F81764BBF
:100A1C0008221A707D4B0A221A7087E10120FFF719
:100A2C00C3FE0346002B05D06F4B01221A70774B87
:100A3C0000221A700220FFF7B7FE0346002B00F0CD
:100A4C007781694B09221A70704B0B221A706FE177
:100A5C000120FFF7A9FE0346002B00F06B81624BCF
:100A6C0001221A70694B00221A7063E10120FFF712
:100A7C009BFE0346002B05D05B4B01221A70634B87
:100A8C0000221A700220FFF78FFE0346002B00F0A5
:100A9C005381554B07221A705C4B09221A704BE19B
:100AAC000120FFF781FE0346002B00F047814E4BDF
:100ABC0001221A70554B00221A703FE10120FFF7FA
:100ACC001FFF0346002B05D10120FFF76DFE0346E7
:100ADC00002B0DD04E4B1B78622B09D84C4B1B783E
:100AEC000133DAB24A4B1A70494B1A784B4B1A70D5
:100AFC000220FFF705FF0346002B05D10220FFF76C
:100B0C0053FE0346002B0DD0414B1B78002B09D014
:100B1C003F4B1B78013BDAB23D4B1A703C4B1A78B9
:100B2C003E4B1A700020FFF73FFE0346002B05D00A
:100B3C002D4B03221A70354B02221A700020FFF73E
:100B4C00DFFE0346002B00F0FB80274B0A221A70B5
:100B5C00F6E00120FFF7D4FE0346002B05D101205F
:100B6C00FFF722FE0346002B0DD02A4B1B78622B7D
:100B7C0009D8284B1B780133DAB2264B1A70254B57
:100B8C001A78264B1A700220FFF7BAFE0346002B88
:100B9C0005D10220FFF708FE0346002B0DD01D4B9C
:100BAC001B78002B09D01B4B1B78013BDAB2194B7D
:100BBC001A70184B1A78194B1A700020FFF7F4FDB5
:100BCC000346002B05D0084B04221A700F4B03224E
:100BDC001A700020FFF794FE0346002B00F0B28041
:100BEC00014B0A221A70ADE03604002038040020B4
:100BFC00390400203A0400203D0400203E0400206B
:100C0C003F0400203C040020410400203704002055
:100C1C004204002043040020440400203B04002034
:100C2C000120FFF76DFE0346002B05D10120FFF7D5
:100C3C00BBFD0346002B0DD0454B1B78622B09D80E
:100C4C00434B1B780133DAB2414B1A70404B1A7884
:100C5C00404B1A700220FFF753FE0346002B05D1C0
:100C6C000220FFF7A1FD0346002B0DD0384B1B785B
:100C7C00002B09D0364B1B78013BDAB2344B1A707F
:100C8C00334B1A78334B1A700020FFF78DFD034657
:100C9C00002B05D0304B02221A70304B01221A70F7
:100CAC000020FFF72DFE0346002B4DD02A4B0A22C5
:100CBC001A7049E02A4B1B7802332A4A1278934265
:100CCC0027DA274B1B78002B23D0214B1B78002BCA
:100CDC001FD0244B1A78244B1A70214B1A78234BB3
:100CEC001A701B4B1A78224B1A70214B1A781F4B17
:100CFC001B781344DAB21F4B1A701C4B1A781E4B1C
:100D0C001A70194B1A78194B1B78D31ADAB21B4B81
:100D1C001A70114B01221A70104B00221A7014E039
:100D2C000D4B00221A7010E000BF0EE000BF0CE06B
:100D3C0000BF0AE000BF08E000BF06E000BF04E00F
:100D4C0000BF02E000BF00E000BF00BF80BD00BFDD
:100D5C00440400203B04002036040020370400200B
:100D6C0043040020420400203804002039040020F1
:100D7C003A0400203D0400203E0400203F040020E3
:100D8C0080B500AF01224FF4E771024801F0B5F8CD
:100D9C0000BF80BD0008014080B500AF01224FF4B8
:100DAC00E771054801F0A9F800220421024801F07E
:100DBC00A4F800BF80BD00BF0008014080B500AFA3
:100DCC0001224FF4E771054801F097F80022022147
:100DDC00024801F092F800BF80BD00BF000801403E
:100DEC0080B500AF01224FF4E771054801F085F89A
:100DFC0000220821024801F080F800BF80BD00BF2E
:100E0C000008014080B500AF01224FF4E77105489E
:100E1C0001F073F800224821024801F06EF800BF7F
:100E2C0080BD00BF0008014080B500AF01224FF427
:100E3C00E771054801F061F800224421024801F0F5
:100E4C005CF800BF80BD00BF0008014080B500AF5A
:100E5C0001224FF4E771054801F04FF800224FF4DE
:100E6C008171024801F049F800BF80BD00080140C3
:100E7C0080B500AF01224FF4E771054801F03DF851
:100E8C0000228221024801F038F800BF80BD00BF6B
:100E9C000008014080B500AF00224FF4C071024839
:100EAC0001F02BF800BF80BD000C014080B500AFF5
:100EBC0000224FF4C061024801F01FF800BF80BD52
:100ECC000008014080B500AFB34B1B78132B00F228
:100EDC00368201A252F823F0350F00087F0F00086C
:100EEC009F0F0008C30F0008EB10000871110008D9
:100EFC00E30F000875100008AD120008CB120008B3
:100F0C002D1200084B1200082D130008E9110008DF
:100F1C0029100008A71000082511000873120008FA
:100F2C00F31200085B0F00089C4B00221A709C4BBC
:100F3C0000221A709B4B19221A60FFF721FF8421A3
:100F4C00994800F0F2FF944B13221A70F7E1954B7D
:100F5C001B68013B934A1360924B1B68002B40F0BB
:100F6C00E181904B19221A6084218F4800F0DDFF3B
:100F7C00D8E18A4B01221A70894B00221A708B4BD4
:100F8C001A788B4B1A70FFF719FF834B0C221A70CF
:100F9C00D5E1824B01221A70814B00221A70854BCD
:100FAC001A78834B1A70FFF775FFFFF7F5FE7A4B33
:100FBC000C221A70C3E1794B01221A70784B002273
:100FCC001A707D4B1A787A4B1A70FFF709FF724B27
:100FDC000C221A70B3E1794B1B781A4613469B000E
:100FEC0013449A0013441A466E4B1A606B4B012241
:100FFC001A706B4B01221A70704B1A786C4B1A706A
:10100C006F4B1A786F4B1A70FFF744FFFFF74EFFC8
:10101C00FFF7F8FE604B0E221A7090E1614B1B68D3
:10102C00013B604A13605F4B1A6813469B001344E4
:10103C00DB001A46644BA3FB02239B09DBB2013392
:10104C00DAB25B4B1A705A4B1A78604B1B7813440C
:10105C00DAB25C4B1A70534B1B68002B40F0648166
:10106C004D4B07221A705FE1584B1B781A461346FA
:10107C009B0013449A0013441A464A4B1A60534B74
:10108C001A784B4B1A70FFF705FFFFF70FFFFFF7AE
:10109C00CBFE414B0F221A7051E1424B1B68013BB6
:1010AC00404A13603F4B1A6813469B001344DB0005
:1010BC001A46454BA3FB02239B09DBB20133DAB280
:1010CC003B4B1A703A4B1A783E4B1A70354B1B68D7
:1010DC00002B40F02B81304B04221A7026E13C4B44
:1010EC001B781A4613469B0013449A0013441A4665
:1010FC002C4B1A60374B1A782D4B1A70344B1A78CC
:10110C00304B1A70FFF7C6FEFFF7D0FEFFF79EFEBE
:10111C00214B10221A7012E1224B1B68013B214A11
:10112C001360204B1A6813469B001344DB001A46CD
:10113C00254BA3FB02239B09DBB20133DAB2214B13
:10114C001A70204B1A78244B1B781344DAB2184BC4
:10115C001A70144B1B68002B40F0EA800E4B0522D2
:10116C001A70E5E01C4B1A78164B1A701A4B1B7848
:10117C001A4613469B0013449A0013441A46094B13
:10118C001A60FFF787FEFFF791FEFFF771FE024B27
:10119C000D221A70D3E000BF370400203C0400205D
:1011AC0041040020480400200008014042040020B3
:1011BC003B04002043040020440400203A04002097
:1011CC003D04002040040020D34D6210390400205F
:1011DC003F040020380400203E040020594B1B68BB
:1011EC00013B584A1360574B1A6813469B00134433
:1011FC00DB001A46544BA3FB02239B09DBB20133E1
:10120C00DAB2524B1A70514B1A78514B1A704D4B33
:10121C001B68002B40F08E804E4B06221A7089E022
:10122C004D4B00221A704D4B00221A70FFF7EAFD4D
:10123C004B4B08221A70474B0C221A707FE0414B23
:10124C004B221A60444B01221A70444B00221A7034
:10125C003F4B03221A70FFF71DFEFFF7E5FD3D4BD8
:10126C0011221A706BE0374B1B68013B354A136037
:10127C00344B1A6813469B001344DB001A46324B5E
:10128C00A3FB02239B09DBB20133DAB2304B1A7099
:10129C002C4B1B68002B4FD12E4B08221A704BE0A5
:1012AC002D4B00221A702D4B00221A70FFF7CEFD29
:1012BC00284B0C221A702A4B06221A703FE0214B45
:1012CC004B221A60244B00221A70244B01221A70F4
:1012DC001E4B03221A70FFF7E9FDFFF7C9FD1D4BEA
:1012EC0012221A702BE0174B1B68013B154A136036
:1012FC00144B1A6813469B001344DB001A46124B1E
:10130C00A3FB02239B09DBB20133DAB20F4B1A7039
:10131C000C4B1B68002B11D10E4B0A221A700DE0DE
:10132C0000BF0CE000BF0AE000BF08E000BF06E011
:10133C0000BF04E000BF02E000BF00E000BF00BF40
:10134C0080BD00BF48040020D34D62104004002033
:10135C003B040020370400203C0400204104002002
:10136C003604002080B584B000AFFFF793FD2D4B01
:10137C001B78002B51D02C4B1B782C4AA2FB03233F
:10138C00DB08DBB2FB81284B1B781A46FB8919461C
:10139C004903C91A8900CB1A5B009BB21344BB8169
:1013AC00234B1B78002B1BD0BB89224A32F81330FD
:1013BC007B817F23FB80FB88002219461E4800F0AE
:1013CC009CFD7B89012219461B4800F096FD0122E9
:1013DC008021194800F091FD154B00221A701DE078
:1013EC00FB89144A32F813307B817F233B813B8984
:1013FC0000221946104800F080FD7B890122194615
:10140C000D4800F07AFD01224FF480710A4800F07B
:10141C0074FD074B01221A7000E000BF1037BD4667
:10142C0080BD00BF3C0400203B040020CDCCCCCCC4
:10143C004F0400202C000020000C014080B584B02B
:10144C0000AFFFF733FD334B1B78002B5ED0324BD4
:10145C001B78324AA2FB0323DB08DBB2FB812E4B49
:10146C001B781A46FB8919464903C91A8900CB1AFD
:10147C005B009BB21344BB81294B1B78002B22D001
:10148C00BB89284A32F813307B817F23FB80FB8891
:10149C005B02FB807B895B027B81FB880022194607
:1014AC00214800F02AFD7B89012219461E4800F0D4
:1014BC0024FD01224FF400711C4800F01EFD184B56
:1014CC0000221A7023E0FB89164A32F813307B8114
:1014DC007F233B813B895B023B817B895B027B8168
:1014EC003B8900221946104800F007FD7B89012238
:1014FC0019460D4800F001FD01224FF480610B48A4
:10150C0000F0FBFC064B01221A7000E000BF103704
:10151C00BD4680BD4104002040040020CDCCCCCC85
:10152C00500400202C000020000C01400008014059
:10153C0080B500AF2021054800F0F7FC00223221D5
:10154C000348FEF757FE00BF80BD00BF00080140F6
:10155C003D15000880B500AF0020FFF753F9034696
:10156C001A46024B1A7000BF80BD00BF4C0400200D
:10157C0080B500AF0120FFF745F903461A46024B30
:10158C005A7000BF80BD00BF4C04002080B500AF76
:10159C000220FFF737F903461A46024B9A7000BF38
:1015AC0080BD00BF4C04002080B500AF00F0A2F954
:1015BC0000F05AF8FFF740F900F006F901224FF459
:1015CC00E7711D4800F099FC1C4B00221A70FEF7C5
:1015DC00B7FD002232211A48FEF70CFE022206212A
:1015EC001848FEF707FE042207211748FEF702FEF3
:1015FC00012208211548FEF7FDFD012202211448A5
:10160C00FEF7F8FD012201211248FEF7F3FD192225
:10161C0003211148FEF7EEFD192204210F48FEF7B5
:10162C00E9FD192205210E48FEF7E4FD0D4801F0F5
:10163C00C3F8FEF755FFFCE7000801403604002014
:10164C003D1500083D090008D10E00087113000873
:10165C0049140008B9060008611500087D1500083A
:10166C00991500085404002080B590B000AF07F124
:10167C00180328220021184601F02AFC3B1D0022E9
:10168C001A605A609A60DA601A610223BB61012306
:10169C00BB621023FB6200237B6307F1180318461F
:1016AC0000F05CFC0346002B01D000F018F80F236F
:1016BC007B600023BB600023FB6000233B610023A5
:1016CC007B613B1D0021184600F0CAFE0346002B2F
:1016DC0001D000F004F800BF4037BD4680BD80B497
:1016EC0000AF72B600BF00BFFDE7000080B485B04C
:1016FC0000AF154B9B69144A43F001039361124BE5
:10170C009B6903F00103BB60BB680F4BDB690E4A9E
:10171C0043F08053D3610C4BDB6903F080537B6047
:10172C007B680A4B5B68FB60FB6823F0E063FB6043
:10173C00FB6843F00073FB60044AFB68536000BF16
:10174C001437BD4680BC70470010024000000140B9
:10175C0080B400AF00BFFDE780B400AF00BFFDE771
:10176C0080B400AF00BFFDE780B400AF00BFFDE761
:10177C0080B400AF00BFFDE780B400AF00BFBD4632
:10178C0080BC704780B400AF00BFBD4680BC7047C2
:10179C0080B400AF00BFBD4680BC704780B500AFC1
:1017AC0000F0EEF800BF80BD80B500AF024801F03C
:1017BC004FF800BF80BD00BF5404002080B400AFC0
:1017CC0000BFBD4680BC704780B586B000AF07F146
:1017DC00080300221A605A609A60DA603B460022C5
:1017EC001A605A601D4B4FF080421A601B4B41F639
:1017FC003F725A60194B00229A60184B0922DA602A
:10180C00164B00221A61154B00229A61134800F006
:10181C0083FF0346002B01D0FFF761FF4FF4805389
:10182C00BB6007F1080319460C4801F001F90346A7
:10183C00002B01D0FFF753FF00233B6000237B609C
:10184C003B461946054801F0D9FA0346002B01D056
:10185C00FFF745FF00BF1837BD4680BD540400207C
:10186C0080B584B000AF78607B681B68B3F1804FA3
:10187C0013D10C4BDB690B4A43F00103D361094BC9
:10188C00DB6903F00103FB60FB68002200211C20D4
:10189C0000F069F91C2000F082F900BF1037BD463A
:1018AC0080BD00BF00100240FFF788FF0B480C49B9
:1018BC000C4A002302E0D458C4500433C4188C42A0
:1018CC00F9D3094A094C002301E013600432A24207
:1018DC00FBD301F005FBFFF767FE7047000000200B
:1018EC004C000020782F00084C000020A0040020A1
:1018FC00FEE7000080B500AF084B1B68074A43F0B9
:10190C0010031360032000F023F90F2000F008F8F7
:10191C00FFF7ECFE0023184680BD00BF00200240FC
:10192C0080B582B000AF7860124B1A68124B1B78EE
:10193C0019464FF47A73B3FBF1F3B2FBF3F3184689
:10194C0000F03BF90346002B01D001230EE07B682D
:10195C000F2B0AD8002279684FF0FF3000F003F902
:10196C00064A7B681360002300E001231846083701
:10197C00BD4680BD400000204800002044000020EF
:10198C0080B400AF054B1B781A46054B1B681344FB
:10199C00034A136000BFBD4680BC7047480000205E
:1019AC009C04002080B400AF024B1B681846BD4657
:1019BC0080BC70479C04002080B485B000AF786078
:1019CC007B6803F00703FB600C4BDB68BB60BA68F9
:1019DC004FF6FF031340BB60FB681A02BB6813434E
:1019EC0043F0BF6343F40033BB60044ABB68D3606D
:1019FC0000BF1437BD4680BC704700BF00ED00E04F
:101A0C0080B400AF044BDB681B0A03F007031846D5
:101A1C00BD4680BC704700BF00ED00E080B483B0D1
:101A2C0000AF0346FB7197F90730002B0BDBFB79FA
:101A3C0003F01F02064997F907305B09012000FAF1
:101A4C0002F241F8232000BF0C37BD4680BC704722
:101A5C0000E100E080B483B000AF03463960FB7155
:101A6C0097F90730002B0ADB3B68DAB20C4997F97F
:101A7C0007301201D2B20B4483F800230AE03B6812
:101A8C00DAB20849FB7903F00F03043B1201D2B21E
:101A9C000B441A7600BF0C37BD4680BC704700BFA4
:101AAC0000E100E000ED00E080B489B000AFF86028
:101ABC00B9607A60FB6803F00703FB61FB69C3F153
:101ACC000703042B28BF0423BB61FB690433062BDB
:101ADC0002D9FB69033B00E000237B614FF0FF322E
:101AEC00BB6902FA03F3DA43BB681A407B699A407C
:101AFC004FF0FF317B6901FA03F3D9437B680B404C
:101B0C00134318462437BD4680BC704780B582B05D
:101B1C0000AF78607B68013BB3F1807F01D3012378
:101B2C000FE00A4A7B68013B53600F214FF0FF30F6
:101B3C00FFF790FF054B00229A60044B07221A60B6
:101B4C00002318460837BD4680BD00BF10E000E0FA
:101B5C0080B582B000AF78607868FFF72DFF00BFCA
:101B6C000837BD4680BD80B586B000AF0346B9606E
:101B7C007A60FB7300237B61FFF742FF78617A6820
:101B8C00B9687869FFF790FF024697F90F30114654
:101B9C001846FFF75FFF00BF1837BD4680BD80B504
:101BAC0082B000AF0346FB7197F907301846FFF778
:101BBC0035FF00BF0837BD4680BD80B582B000AF91
:101BCC0078607868FFF7A2FF034618460837BD46D1
:101BDC0080BD000080B48BB000AF7860396000230A
:101BEC007B6200233B6261E101227B6A02FA03F310
:101BFC00FB613B681B68FA691340BB61BA69FB69FE
:101C0C009A4240F050813B685B68974A93425ED0A1
:101C1C00954A934275D8954A934258D0934A934229
:101C2C006FD8934A934252D0914A934269D8914AC1
:101C3C0093424CD08F4A934263D88F4A934246D0FA
:101C4C008D4A93425DD8122B2AD8122B59D801A257
:101C5C0052F823F0DB1C0008B51C0008C71C000858
:101C6C00091D00080F1D00080F1D00080F1D00089E
:101C7C000F1D00080F1D00080F1D00080F1D000888
:101C8C000F1D00080F1D00080F1D00080F1D000878
:101C9C000F1D00080F1D0008BD1C0008D11C0008FA
:101CAC00764A934213D02CE03B68DB683B6229E018
:101CBC003B68DB6804333B6224E03B68DB68083339
:101CCC003B621FE03B68DB680C333B621AE03B680D
:101CDC009B68002B02D104233B6213E03B689B689A
:101CEC00012B05D108233B627B68FA691A6109E074
:101CFC0008233B627B68FA695A6103E000233B626C
:101D0C0000E000BFBB69FF2B01D87B6801E07B685A
:101D1C0004337B61BB69FF2B02D87B6A9B0002E01A
:101D2C007B6A083B9B003B617B691A680F213B690E
:101D3C0001FA03F3DB431A40396A3B6901FA03F3F6
:101D4C001A437B691A603B685B6803F08053002B75
:101D5C0000F0A9804A4B9B69494A43F00103936107
:101D6C00474B9B6903F00103BB60BB68454A7B6A28
:101D7C009B08023352F82330FB607B6A03F00303A9
:101D8C009B000F2202FA03F3DB43FA681340FB605B
:101D9C007B683D4A93420DD07B683C4A934207D006
:101DAC007B683B4A934201D1022304E0032302E007
:101DBC00012300E000237A6A02F0030292009340B0
:101DCC00FA681343FB602F497B6A9B080233FA685D
:101DDC0041F823203B685B6803F48013002B06D08A
:101DEC002C4B9A682B49BB6913438B6006E0294B3B
:101DFC009A68BB69DB43274913408B603B685B687F
:101E0C0003F40013002B06D0224BDA682149BB697E
:101E1C001343CB6006E01F4BDA68BB69DB431D49FB
:101E2C001340CB603B685B6803F40033002B06D097
:101E3C00184B5A681749BB6913434B6006E0154BA6
:101E4C005A68BB69DB43134913404B603B685B68C2
:101E5C0003F48033002B1FD00E4B1A680D49BB695D
:101E6C0013430B601FE000BF000032100000311064
:101E7C0000002210000021100000121000001110B0
:101E8C00001002400000014000080140000C01401D
:101E9C0000100140000401400B4B1A68BB69DB4386
:101EAC00094913400B607B6A01337B623B681A68FB
:101EBC007B6A22FA03F3002B7FF496AE00BF00BFBF
:101ECC002C37BD4680BC70470004014080B485B0FF
:101EDC0000AF78600B467B807B689A687B881340E8
:101EEC00002B02D00123FB7301E00023FB73FB7B6F
:101EFC0018461437BD4680BC704780B483B000AF21
:101F0C0078600B467B8013467B707B78002B03D06C
:101F1C007A887B681A6103E07B881A047B681A61F3
:101F2C0000BF0C37BD4680BC704780B485B000AF95
:101F3C0078600B467B807B68DB68FB607A88FB688B
:101F4C0013401A04FB68D9437B880B401A437B6807
:101F5C001A6100BF1437BD4680BC704780B586B08F
:101F6C0000AF78607B68002B01D1012372E27B68A3
:101F7C001B6803F00103002B00F08780924B5B6819
:101F8C0003F00C03042B0CD08F4B5B6803F00C0399
:101F9C00082B12D18C4B5B6803F48033B3F5803F74
:101FAC000BD1894B1B6803F40033002B6CD07B687E
:101FBC005B68002B68D101234CE27B685B68B3F54E
:101FCC00803F06D1804B1B687F4A43F480331360FB
:101FDC002EE07B685B68002B0CD17B4B1B687A4A2C
:101FEC0023F480331360784B1B68774A23F48023E7
:101FFC0013601DE07B685B68B3F5A02F0CD1724BAE
:10200C001B68714A43F4802313606F4B1B686E4A44
:10201C0043F4803313600BE06B4B1B686A4A23F468
:10202C0080331360684B1B68674A23F4802313606A
:10203C007B685B68002B13D0FFF7B4FC386108E0B9
:10204C00FFF7B0FC02463B69D31A642B01D903237A
:10205C0000E25D4B1B6803F40033002BF0D014E05E
:10206C00FFF7A0FC386108E0FFF79CFC02463B69D7
:10207C00D31A642B01D90323ECE1534B1B6803F4F3
:10208C000033002BF0D100E000BF7B681B6803F02D
:10209C000203002B63D04C4B5B6803F00C03002B4A
:1020AC000BD0494B5B6803F00C03082B1CD1464B3F
:1020BC005B6803F48033002B16D1434B1B6803F091
:1020CC000203002B05D07B681B69012B01D0012377
:1020DC00C0E13D4B1B6823F0F8027B685B69DB00B9
:1020EC00394913430B603AE07B681B69002B20D005
:1020FC00364B01221A60FFF755FC386108E0FFF7F8
:10210C0051FC02463B69D31A022B01D90323A1E1EE
:10211C002D4B1B6803F00203002BF0D02A4B1B68DD
:10212C0023F0F8027B685B69DB00274913430B60E3
:10213C0015E0264B00221A60FFF734FC386108E0EA
:10214C00FFF730FC02463B69D31A022B01D903235B
:10215C0080E11D4B1B6803F00203002BF0D17B6860
:10216C001B6803F00803002B3AD07B689B69002B9B
:10217C0019D0174B01221A60FFF714FC386108E0E4
:10218C00FFF710FC02463B69D31A022B01D903233B
:10219C0060E10D4B5B6A03F00203002BF0D00120D1
:1021AC0000F09CFA1CE00A4B00221A60FFF7FAFBC5
:1021BC0038610FE0FFF7F6FB02463B69D31A022B9E
:1021CC0008D9032346E100BF001002400000424240
:1021DC0080044242924B5B6A03F00203002BE9D16C
:1021EC007B681B6803F00403002B00F0A68000231F
:1021FC00FB758B4BDB6903F08053002B0DD1884BA7
:10220C00DB69874A43F08053D361854BDB6903F06C
:10221C008053BB60BB680123FB75824B1B6803F4C6
:10222C008073002B18D17F4B1B687E4A43F480735C
:10223C001360FFF7B7FB386108E0FFF7B3FB02460A
:10224C003B69D31A642B01D9032303E1754B1B683B
:10225C0003F48073002BF0D07B68DB68012B06D174
:10226C006F4B1B6A6E4A43F0010313622DE07B68CF
:10227C00DB68002B0CD16A4B1B6A694A23F0010303
:10228C001362674B1B6A664A23F0040313621CE05B
:10229C007B68DB68052B0CD1614B1B6A604A43F0F1
:1022AC00040313625E4B1B6A5D4A43F00103136225
:1022BC000BE05B4B1B6A5A4A23F001031362584B29
:1022CC001B6A574A23F0040313627B68DB68002BFC
:1022DC0015D0FFF767FB38610AE0FFF763FB024696
:1022EC003B69D31A41F28832934201D90323B1E0FE
:1022FC004B4B1B6A03F00203002BEED014E0FFF7EC
:10230C0051FB38610AE0FFF74DFB02463B69D31ADB
:10231C0041F28832934201D903239BE0404B1B6A64
:10232C0003F00203002BEED1FB7D012B05D13C4BBE
:10233C00DB693B4A23F08053D3617B68DB69002B5C
:10234C0000F08780364B5B6803F00C03082B61D0E0
:10235C007B68DB69022B46D1334B00221A60FFF7F6
:10236C0021FB386108E0FFF71DFB02463B69D31ADD
:10237C00022B01D903236DE0294B1B6803F000737A
:10238C00002BF0D17B681B6AB3F5803F08D1244B3E
:10239C005B6823F400327B689B68214913434B60D4
:1023AC001F4B5B6823F474127B68196A7B685B6A49
:1023BC000B431B4913434B601B4B01221A60FFF765
:1023CC00F1FA386108E0FFF7EDFA02463B69D31ADF
:1023DC00022B01D903233DE0114B1B6803F0007362
:1023EC00002BF0D035E0104B00221A60FFF7DAFA20
:1023FC00386108E0FFF7D6FA02463B69D31A022B84
:10240C0001D9032326E0064B1B6803F00073002B55
:10241C00F0D11EE07B68DB69012B07D1012319E0A9
:10242C000010024000700040600042420B4B5B68A1
:10243C00FB60FB6803F480327B681B6A9A4206D10E
:10244C00FB6803F470127B685B6A9A4201D001232B
:10245C0000E0002318461837BD4680BD001002402E
:10246C0080B584B000AF786039607B68002B01D1F7
:10247C000123D0E06A4B1B6803F007033A689A42C9
:10248C0010D9674B1B6823F0070265493B6813435F
:10249C000B60634B1B6803F007033A689A4201D048
:1024AC000123B8E07B681B6803F00203002B20D0EB
:1024BC007B681B6803F00403002B05D0594B5B6849
:1024CC00584A43F4E06353607B681B6803F00803CD
:1024DC00002B05D0534B5B68524A43F46053536056
:1024EC00504B5B6823F0F0027B689B684D491343AB
:1024FC004B607B681B6803F00103002B40D07B68AA
:10250C005B68012B07D1474B1B6803F40033002B8E
:10251C0015D101237FE07B685B68022B07D1414B0F
:10252C001B6803F00073002B09D1012373E03D4BB2
:10253C001B6803F00203002B01D101236BE0394B24
:10254C005B6823F003027B685B68364913434B607E
:10255C00FFF728FAF8600AE0FFF724FA0246FB6856
:10256C00D31A41F28832934201D9032353E02D4B05
:10257C005B6803F00C027B685B689B009A42EBD1B2
:10258C00274B1B6803F007033A689A4210D2244B7E
:10259C001B6823F0070222493B6813430B60204B56
:1025AC001B6803F007033A689A4201D0012332E01A
:1025BC007B681B6803F00403002B08D0194B5B6885
:1025CC0023F4E0627B68DB68164913434B607B683D
:1025DC001B6803F00803002B09D0124B5B6823F433
:1025EC0060527B681B69DB000E4913434B6000F0A3
:1025FC0021F802460B4B5B681B0903F00F030A49D9
:10260C00CB5C22FA03F3094A1360094B1B6818468A
:10261C00FFF786F9002318461037BD4680BD00BF72
:10262C0000200240001002404C2F00084000002007
:10263C004400002080B487B000AF0023FB6000236F
:10264C00BB6000237B6100237B6000233B611E4B3E
:10265C005B68FB60FB6803F00C03042B02D0082BB7
:10266C0003D027E0194B3B6127E0FB689B0C03F080
:10267C000F03174AD35C7B60FB6803F48033002B99
:10268C0010D0114B5B685B0C03F00103114AD35C57
:10269C00BB607B680D4A03FB02F2BB68B2FBF3F331
:1026AC007B6104E07B680C4A02FB03F37B617B6972
:1026BC003B6102E0054B3B6100BF3B6918461C3790
:1026CC00BD4680BC704700BF0010024000127A006B
:1026DC005C2F00086C2F000800093D0080B485B009
:1026EC0000AF78600A4B1B680A4AA2FB03235B0A03
:1026FC007A6802FB03F3FB6000BFFB685A1EFA60AA
:10270C00002BF9D100BF00BF1437BD4680BC704709
:10271C0040000020D34D621080B582B000AF7860CD
:10272C007B68002B01D1012341E07B6893F83D309D
:10273C00DBB2002B06D17B68002283F83C20786842
:10274C00FFF78EF87B68022283F83D207B681A68BD
:10275C007B6804331946104600F056FA7B68012258
:10276C0083F846207B68012283F83E207B68012297
:10277C0083F83F207B68012283F840207B6801228C
:10278C0083F841207B68012283F842207B68012278
:10279C0083F843207B68012283F844207B68012264
:1027AC0083F845207B68012283F83D2000231846DE
:1027BC000837BD4680BD000080B485B000AF78609E
:1027CC007B6893F83D30DBB2012B01D0012335E05F
:1027DC007B68022283F83D207B681B68DA687B6883
:1027EC001B6842F00102DA607B681B68164A934250
:1027FC0009D07B681B68B3F1804F04D07B681B68E1
:10280C00124A934211D17B681B689B6803F0070343
:10281C00FB60FB68062B10D07B681B681A687B6812
:10282C001B6842F001021A6007E07B681B681A689B
:10283C007B681B6842F001021A60002318461437AB
:10284C00BD4680BC704700BF002C01400004004016
:10285C0080B584B000AF78607B681B68DB68FB6078
:10286C007B681B681B69BB60BB6803F00203002B11
:10287C0020D0FB6803F00203002B1BD07B681B6885
:10288C006FF002021A617B6801221A777B681B6861
:10289C009B6903F00303002B03D0786800F098F9D0
:1028AC0005E0786800F08BF9786800F09AF97B689D
:1028BC0000221A77BB6803F00403002B20D0FB68BE
:1028CC0003F00403002B1BD07B681B686FF0040221
:1028DC001A617B6802221A777B681B689B6903F478
:1028EC004073002B03D0786800F072F905E078682B
:1028FC0000F065F9786800F074F97B6800221A77AB
:10290C00BB6803F00803002B20D0FB6803F008031E
:10291C00002B1BD07B681B686FF008021A617B6868
:10292C0004221A777B681B68DB6903F00303002B16
:10293C0003D0786800F04CF905E0786800F03FF9B6
:10294C00786800F04EF97B6800221A77BB6803F0B8
:10295C001003002B20D0FB6803F01003002B1BD0BE
:10296C007B681B686FF010021A617B6808221A776B
:10297C007B681B68DB6903F44073002B03D0786819
:10298C0000F026F905E0786800F019F9786800F095
:10299C0028F97B6800221A77BB6803F00103002B2F
:1029AC000CD0FB6803F00103002B07D07B681B687D
:1029BC006FF001021A617868FDF768FEBB6803F0DE
:1029CC008003002B0CD0FB6803F08003002B07D096
:1029DC007B681B686FF080021A61786800F06FFAF0
:1029EC00BB6803F04003002B0CD0FB6803F04003E2
:1029FC00002B07D07B681B686FF040021A61786867
:102A0C0000F0F8F8BB6803F02003002B0CD0FB6837
:102A1C0003F02003002B07D07B681B686FF02002AB
:102A2C001A61786800F042FA00BF1037BD4680BDCD
:102A3C0080B584B000AF786039600023FB737B688D
:102A4C0093F83C30012B01D10223B4E07B680122C6
:102A5C0083F83C207B68022283F83D207B681B684E
:102A6C009B68BB60BB6823F07703BB60BB6823F437
:102A7C007F43BB607B681B68BA689A603B681B68C5
:102A8C00B3F5005F3ED0B3F5005F00F28780B3F57D
:102A9C00805F00F08680B3F5805F7FD8702B1AD0F2
:102AAC00702B7BD8602B50D0602B77D8502B3CD020
:102ABC00502B73D8402B58D0402B6FD8302B64D070
:102ACC00302B6BD8202B60D0202B67D8002B5CD000
:102ADC00102B5AD062E07B6818683B6899683B6899
:102AEC005A683B68DB6800F06AF97B681B689B6876
:102AFC00BB60BB6843F07703BB607B681B68BA683C
:102B0C009A604FE07B6818683B6899683B685A6824
:102B1C003B68DB6800F053F97B681B689A687B683C
:102B2C001B6842F480429A603CE07B6818683B6802
:102B3C0059683B68DB681A4600F0CAF87B681B686A
:102B4C005021184600F021F92CE07B6818683B688E
:102B5C0059683B68DB681A4600F0E8F87B681B682C
:102B6C006021184600F011F91CE07B6818683B687E
:102B7C0059683B68DB681A4600F0AAF87B681B684A
:102B8C004021184600F001F90CE07B681A683B689C
:102B9C001B681946104600F0F8F803E00123FB739C
:102BAC0000E000BF7B68012283F83D207B68002297
:102BBC0083F83C20FB7B18461037BD4680BD80B4A3
:102BCC0083B000AF786000BF0C37BD4680BC704747
:102BDC0080B483B000AF786000BF0C37BD4680BCBA
:102BEC00704780B483B000AF786000BF0C37BD462F
:102BFC0080BC704780B483B000AF786000BF0C37E6
:102C0C00BD4680BC7047000080B485B000AF7860D2
:102C1C0039607B681B68FB607B682B4A934207D04A
:102C2C007B68B3F1804F03D07B68284A934208D16C
:102C3C00FB6823F07003FB603B685B68FA68134326
:102C4C00FB607B68204A934207D07B68B3F1804FCE
:102C5C0003D07B681D4A934208D1FB6823F4407370
:102C6C00FB603B68DB68FA681343FB60FB6823F08E
:102C7C0080023B685B691343FB607B68FA681A60EF
:102C8C003B689A687B68DA623B681A687B689A6270
:102C9C007B680D4A934203D13B681A697B681A63BF
:102CAC007B6801225A617B681B6903F00103002BCE
:102CBC0005D07B681B6923F001027B681A6100BF99
:102CCC001437BD4680BC7047002C01400004004006
:102CDC0080B487B000AFF860B9607A60FB681B6A9B
:102CEC007B61FB681B6A23F00102FB681A62FB68BC
:102CFC009B693B613B6923F0F0033B617B681B01E3
:102D0C003A6913433B617B6923F00A037B617A695F
:102D1C00BB6813437B61FB683A699A61FB687A690B
:102D2C001A6200BF1C37BD4680BC704780B487B0A8
:102D3C0000AFF860B9607A60FB681B6A7B61FB6866
:102D4C001B6A23F01002FB681A62FB689B693B61EB
:102D5C003B6923F470433B617B681B033A69134363
:102D6C003B617B6923F0A0037B61BB681B017A6923
:102D7C0013437B61FB683A699A61FB687A691A6252
:102D8C0000BF1C37BD4680BC704780B485B000AF17
:102D9C00786039607B689B68FB60FB6823F070038C
:102DAC00FB603A68FB68134343F00703FB607B68E6
:102DBC00FA689A6000BF1437BD4680BC704780B477
:102DCC0087B000AFF860B9607A603B60FB689B68C5
:102DDC007B617B6923F47F437B613B681A027B68D0
:102DEC001A43BB6813437A6913437B61FB687A69A6
:102DFC009A6000BF1C37BD4680BC704780B485B05C
:102E0C0000AF786039607B6893F83C30012B01D1BE
:102E1C00022341E07B68012283F83C207B6802227C
:102E2C0083F83D207B681B685B68FB607B681B68D4
:102E3C009B68BB60FB6823F07003FB603B681B68FE
:102E4C00FA681343FB607B681B68FA685A607B68FE
:102E5C001B68144A934209D07B681B68B3F1804FFE
:102E6C0004D07B681B68104A93420CD1BB6823F0DA
:102E7C008003BB603B685B68BA681343BB607B68CC
:102E8C001B68BA689A607B68012283F83D207B68D6
:102E9C00002283F83C20002318461437BD4680BC22
:102EAC00704700BF002C01400004004080B483B088
:102EBC0000AF786000BF0C37BD4680BC704780B453
:102ECC0083B000AF786000BF0C37BD4680BC704744
:102EDC0003460244934200D1704703F8011BF9E703
:102EEC0070B500260C4D0D4C641BA410A64209D1E4
:102EFC0000F01AF800260A4D0A4C641BA410A642D6
:102F0C0005D170BD55F8043B98470136EEE755F8EE
:102F1C00043B98470136F2E7702F0008702F000829
:102F2C00702F0008742F0008F8B500BFF8BC08BC5F
:102F3C009E467047F8B500BFF8BC08BC9E4670476B
:102F4C00000000000000000001020304060708094D
:102F5C0002030405060708090A0B0C0D0E0F1010CE
:042F6C00010200005E
:042F70003101000823
:042F74000D01000843
:102F78000100000001000000010000000100000045
:102F880001000000010000000008014000080140A5
:102F98000008014010000010008000004000790087
:102FA8002400300019001200020078000000100010
:0C2FB80000127A00100000000100000070
:04000005080018B522
:00000001FF
